{
  "contractName": "Market",
  "abi": [
    {
      "inputs": [],
      "stateMutability": "nonpayable",
      "type": "constructor"
    },
    {
      "anonymous": false,
      "inputs": [
        {
          "indexed": true,
          "internalType": "uint256",
          "name": "itemId",
          "type": "uint256"
        },
        {
          "indexed": true,
          "internalType": "address",
          "name": "nftContract",
          "type": "address"
        },
        {
          "indexed": true,
          "internalType": "uint256",
          "name": "tokenId",
          "type": "uint256"
        },
        {
          "indexed": false,
          "internalType": "address",
          "name": "seller",
          "type": "address"
        },
        {
          "indexed": false,
          "internalType": "address",
          "name": "owner",
          "type": "address"
        },
        {
          "indexed": false,
          "internalType": "uint256",
          "name": "price",
          "type": "uint256"
        },
        {
          "indexed": false,
          "internalType": "bool",
          "name": "sold",
          "type": "bool"
        }
      ],
      "name": "MarketItemCreated",
      "type": "event"
    },
    {
      "inputs": [],
      "name": "getListingPrice",
      "outputs": [
        {
          "internalType": "uint256",
          "name": "",
          "type": "uint256"
        }
      ],
      "stateMutability": "view",
      "type": "function"
    },
    {
      "inputs": [
        {
          "internalType": "address",
          "name": "nftContract",
          "type": "address"
        },
        {
          "internalType": "uint256",
          "name": "tokenId",
          "type": "uint256"
        },
        {
          "internalType": "uint256",
          "name": "price",
          "type": "uint256"
        }
      ],
      "name": "createMarketItem",
      "outputs": [],
      "stateMutability": "payable",
      "type": "function"
    },
    {
      "inputs": [
        {
          "internalType": "address",
          "name": "nftContract",
          "type": "address"
        },
        {
          "internalType": "uint256",
          "name": "itemId",
          "type": "uint256"
        }
      ],
      "name": "createMarketSale",
      "outputs": [],
      "stateMutability": "payable",
      "type": "function"
    },
    {
      "inputs": [],
      "name": "fetchMarketItems",
      "outputs": [
        {
          "components": [
            {
              "internalType": "uint256",
              "name": "itemId",
              "type": "uint256"
            },
            {
              "internalType": "address",
              "name": "nftContract",
              "type": "address"
            },
            {
              "internalType": "uint256",
              "name": "tokenId",
              "type": "uint256"
            },
            {
              "internalType": "address payable",
              "name": "seller",
              "type": "address"
            },
            {
              "internalType": "address payable",
              "name": "owner",
              "type": "address"
            },
            {
              "internalType": "uint256",
              "name": "price",
              "type": "uint256"
            },
            {
              "internalType": "bool",
              "name": "sold",
              "type": "bool"
            }
          ],
          "internalType": "struct Market.MarketItem[]",
          "name": "",
          "type": "tuple[]"
        }
      ],
      "stateMutability": "view",
      "type": "function"
    },
    {
      "inputs": [],
      "name": "fetchMyNFTs",
      "outputs": [
        {
          "components": [
            {
              "internalType": "uint256",
              "name": "itemId",
              "type": "uint256"
            },
            {
              "internalType": "address",
              "name": "nftContract",
              "type": "address"
            },
            {
              "internalType": "uint256",
              "name": "tokenId",
              "type": "uint256"
            },
            {
              "internalType": "address payable",
              "name": "seller",
              "type": "address"
            },
            {
              "internalType": "address payable",
              "name": "owner",
              "type": "address"
            },
            {
              "internalType": "uint256",
              "name": "price",
              "type": "uint256"
            },
            {
              "internalType": "bool",
              "name": "sold",
              "type": "bool"
            }
          ],
          "internalType": "struct Market.MarketItem[]",
          "name": "",
          "type": "tuple[]"
        }
      ],
      "stateMutability": "view",
      "type": "function"
    },
    {
      "inputs": [],
      "name": "fetchItemsCreated",
      "outputs": [
        {
          "components": [
            {
              "internalType": "uint256",
              "name": "itemId",
              "type": "uint256"
            },
            {
              "internalType": "address",
              "name": "nftContract",
              "type": "address"
            },
            {
              "internalType": "uint256",
              "name": "tokenId",
              "type": "uint256"
            },
            {
              "internalType": "address payable",
              "name": "seller",
              "type": "address"
            },
            {
              "internalType": "address payable",
              "name": "owner",
              "type": "address"
            },
            {
              "internalType": "uint256",
              "name": "price",
              "type": "uint256"
            },
            {
              "internalType": "bool",
              "name": "sold",
              "type": "bool"
            }
          ],
          "internalType": "struct Market.MarketItem[]",
          "name": "",
          "type": "tuple[]"
        }
      ],
      "stateMutability": "view",
      "type": "function"
    }
  ],
  "bytecode": "0x608060405266b1a2bc2ec5000060045534801561001b57600080fd5b50600160008190555033600360006101000a81548173ffffffffffffffffffffffffffffffffffffffff021916908373ffffffffffffffffffffffffffffffffffffffff16021790555061179d806100746000396000f3fe608060405260043610610072576000357c0100000000000000000000000000000000000000000000000000000000900480630f08efe01461007757806312e85585146100a2578063202e3740146100cd57806358eb2df5146100f8578063c23b139e14610114578063f064c32e14610130575b600080fd5b34801561008357600080fd5b5061008c61015b565b60405161009991906114d7565b60405180910390f35b3480156100ae57600080fd5b506100b7610471565b6040516100c49190611519565b60405180910390f35b3480156100d957600080fd5b506100e261047b565b6040516100ef91906114d7565b60405180910390f35b610112600480360381019061010d919061126d565b610815565b005b61012e60048036038101906101299190611231565b610b29565b005b34801561013c57600080fd5b50610145610dc8565b60405161015291906114d7565b60405180910390f35b606060006101696001611162565b905060006101776002611162565b6101816001611162565b61018b91906115d4565b90506000808267ffffffffffffffff8111156101d0577f4e487b7100000000000000000000000000000000000000000000000000000000600052604160045260246000fd5b60405190808252806020026020018201604052801561020957816020015b6101f6611186565b8152602001906001900390816101ee5790505b50905060005b8481101561046657600073ffffffffffffffffffffffffffffffffffffffff1660056000600184610240919061157e565b815260200190815260200160002060040160009054906101000a900473ffffffffffffffffffffffffffffffffffffffff1673ffffffffffffffffffffffffffffffffffffffff16141561045357600060018261029d919061157e565b90506000600560008381526020019081526020016000209050806040518060e0016040529081600082015481526020016001820160009054906101000a900473ffffffffffffffffffffffffffffffffffffffff1673ffffffffffffffffffffffffffffffffffffffff1673ffffffffffffffffffffffffffffffffffffffff168152602001600282015481526020016003820160009054906101000a900473ffffffffffffffffffffffffffffffffffffffff1673ffffffffffffffffffffffffffffffffffffffff1673ffffffffffffffffffffffffffffffffffffffff1681526020016004820160009054906101000a900473ffffffffffffffffffffffffffffffffffffffff1673ffffffffffffffffffffffffffffffffffffffff1673ffffffffffffffffffffffffffffffffffffffff168152602001600582015481526020016006820160009054906101000a900460ff161515151581525050848681518110610436577f4e487b7100000000000000000000000000000000000000000000000000000000600052603260045260246000fd5b602002602001018190525060018561044e919061157e565b945050505b808061045e90611698565b91505061020f565b508094505050505090565b6000600454905090565b606060006104896001611162565b905060008060005b83811015610532573373ffffffffffffffffffffffffffffffffffffffff16600560006001846104c1919061157e565b815260200190815260200160002060040160009054906101000a900473ffffffffffffffffffffffffffffffffffffffff1673ffffffffffffffffffffffffffffffffffffffff16141561051f5760018361051c919061157e565b92505b808061052a90611698565b915050610491565b5060008267ffffffffffffffff811115610575577f4e487b7100000000000000000000000000000000000000000000000000000000600052604160045260246000fd5b6040519080825280602002602001820160405280156105ae57816020015b61059b611186565b8152602001906001900390816105935790505b50905060005b8481101561080a573373ffffffffffffffffffffffffffffffffffffffff16600560006001846105e4919061157e565b815260200190815260200160002060040160009054906101000a900473ffffffffffffffffffffffffffffffffffffffff1673ffffffffffffffffffffffffffffffffffffffff1614156107f7576000600182610641919061157e565b90506000600560008381526020019081526020016000209050806040518060e0016040529081600082015481526020016001820160009054906101000a900473ffffffffffffffffffffffffffffffffffffffff1673ffffffffffffffffffffffffffffffffffffffff1673ffffffffffffffffffffffffffffffffffffffff168152602001600282015481526020016003820160009054906101000a900473ffffffffffffffffffffffffffffffffffffffff1673ffffffffffffffffffffffffffffffffffffffff1673ffffffffffffffffffffffffffffffffffffffff1681526020016004820160009054906101000a900473ffffffffffffffffffffffffffffffffffffffff1673ffffffffffffffffffffffffffffffffffffffff1673ffffffffffffffffffffffffffffffffffffffff168152602001600582015481526020016006820160009054906101000a900460ff1615151515815250508486815181106107da577f4e487b7100000000000000000000000000000000000000000000000000000000600052603260045260246000fd5b60200260200101819052506001856107f2919061157e565b945050505b808061080290611698565b9150506105b4565b508094505050505090565b6002600054141561085b576040517f08c379a0000000000000000000000000000000000000000000000000000000008152600401610852906114f9565b60405180910390fd5b60026000819055506000811161087057600080fd5b600454341461087e57600080fd5b6108886001611170565b60006108946001611162565b90506040518060e001604052808281526020018573ffffffffffffffffffffffffffffffffffffffff1681526020018481526020013373ffffffffffffffffffffffffffffffffffffffff168152602001600073ffffffffffffffffffffffffffffffffffffffff16815260200183815260200160001515815250600560008381526020019081526020016000206000820151816000015560208201518160010160006101000a81548173ffffffffffffffffffffffffffffffffffffffff021916908373ffffffffffffffffffffffffffffffffffffffff1602179055506040820151816002015560608201518160030160006101000a81548173ffffffffffffffffffffffffffffffffffffffff021916908373ffffffffffffffffffffffffffffffffffffffff16021790555060808201518160040160006101000a81548173ffffffffffffffffffffffffffffffffffffffff021916908373ffffffffffffffffffffffffffffffffffffffff16021790555060a0820151816005015560c08201518160060160006101000a81548160ff0219169083151502179055509050508373ffffffffffffffffffffffffffffffffffffffff166323b872dd3330866040518463ffffffff167c0100000000000000000000000000000000000000000000000000000000028152600401610a91939291906114a0565b600060405180830381600087803b158015610aab57600080fd5b505af1158015610abf573d6000803e3d6000fd5b50505050828473ffffffffffffffffffffffffffffffffffffffff16827f045dfa01dcba2b36aba1d3dc4a874f4b0c5d2fbeb8d2c4b34a7d88c8d8f929d1336000876000604051610b13949392919061145b565b60405180910390a4506001600081905550505050565b60026000541415610b6f576040517f08c379a0000000000000000000000000000000000000000000000000000000008152600401610b66906114f9565b60405180910390fd5b6002600081905550600060056000838152602001908152602001600020600501549050600060056000848152602001908152602001600020600201549050813414610bb957600080fd5b6005600084815260200190815260200160002060030160009054906101000a900473ffffffffffffffffffffffffffffffffffffffff1673ffffffffffffffffffffffffffffffffffffffff166108fc349081150290604051600060405180830381858888f19350505050158015610c35573d6000803e3d6000fd5b508373ffffffffffffffffffffffffffffffffffffffff166323b872dd3033846040518463ffffffff167c0100000000000000000000000000000000000000000000000000000000028152600401610c8f939291906114a0565b600060405180830381600087803b158015610ca957600080fd5b505af1158015610cbd573d6000803e3d6000fd5b50505050336005600085815260200190815260200160002060040160006101000a81548173ffffffffffffffffffffffffffffffffffffffff021916908373ffffffffffffffffffffffffffffffffffffffff16021790555060016005600085815260200190815260200160002060060160006101000a81548160ff021916908315150217905550610d4f6002611170565b600360009054906101000a900473ffffffffffffffffffffffffffffffffffffffff1673ffffffffffffffffffffffffffffffffffffffff166108fc6004549081150290604051600060405180830381858888f19350505050158015610db9573d6000803e3d6000fd5b50505060016000819055505050565b60606000610dd66001611162565b905060008060005b83811015610e7f573373ffffffffffffffffffffffffffffffffffffffff1660056000600184610e0e919061157e565b815260200190815260200160002060030160009054906101000a900473ffffffffffffffffffffffffffffffffffffffff1673ffffffffffffffffffffffffffffffffffffffff161415610e6c57600183610e69919061157e565b92505b8080610e7790611698565b915050610dde565b5060008267ffffffffffffffff811115610ec2577f4e487b7100000000000000000000000000000000000000000000000000000000600052604160045260246000fd5b604051908082528060200260200182016040528015610efb57816020015b610ee8611186565b815260200190600190039081610ee05790505b50905060005b84811015611157573373ffffffffffffffffffffffffffffffffffffffff1660056000600184610f31919061157e565b815260200190815260200160002060030160009054906101000a900473ffffffffffffffffffffffffffffffffffffffff1673ffffffffffffffffffffffffffffffffffffffff161415611144576000600182610f8e919061157e565b90506000600560008381526020019081526020016000209050806040518060e0016040529081600082015481526020016001820160009054906101000a900473ffffffffffffffffffffffffffffffffffffffff1673ffffffffffffffffffffffffffffffffffffffff1673ffffffffffffffffffffffffffffffffffffffff168152602001600282015481526020016003820160009054906101000a900473ffffffffffffffffffffffffffffffffffffffff1673ffffffffffffffffffffffffffffffffffffffff1673ffffffffffffffffffffffffffffffffffffffff1681526020016004820160009054906101000a900473ffffffffffffffffffffffffffffffffffffffff1673ffffffffffffffffffffffffffffffffffffffff1673ffffffffffffffffffffffffffffffffffffffff168152602001600582015481526020016006820160009054906101000a900460ff161515151581525050848681518110611127577f4e487b7100000000000000000000000000000000000000000000000000000000600052603260045260246000fd5b602002602001018190525060018561113f919061157e565b945050505b808061114f90611698565b915050610f01565b508094505050505090565b600081600001549050919050565b6001816000016000828254019250508190555050565b6040518060e0016040528060008152602001600073ffffffffffffffffffffffffffffffffffffffff16815260200160008152602001600073ffffffffffffffffffffffffffffffffffffffff168152602001600073ffffffffffffffffffffffffffffffffffffffff168152602001600081526020016000151581525090565b60008135905061121681611739565b92915050565b60008135905061122b81611750565b92915050565b6000806040838503121561124457600080fd5b600061125285828601611207565b92505060206112638582860161121c565b9150509250929050565b60008060006060848603121561128257600080fd5b600061129086828701611207565b93505060206112a18682870161121c565b92505060406112b28682870161121c565b9150509250925092565b60006112c883836113af565b60e08301905092915050565b6112dd81611662565b82525050565b6112ec8161161a565b82525050565b6112fb81611608565b82525050565b61130a81611608565b82525050565b600061131b82611544565b611325818561155c565b935061133083611534565b8060005b8381101561136157815161134888826112bc565b97506113538361154f565b925050600181019050611334565b5085935050505092915050565b6113778161162c565b82525050565b6113868161162c565b82525050565b6000611399601f8361156d565b91506113a482611710565b602082019050919050565b60e0820160008201516113c5600085018261143d565b5060208201516113d860208501826112f2565b5060408201516113eb604085018261143d565b5060608201516113fe60608501826112e3565b50608082015161141160808501826112e3565b5060a082015161142460a085018261143d565b5060c082015161143760c085018261136e565b50505050565b61144681611658565b82525050565b61145581611658565b82525050565b600060808201905061147060008301876112d4565b61147d60208301866112d4565b61148a604083018561144c565b611497606083018461137d565b95945050505050565b60006060820190506114b56000830186611301565b6114c26020830185611301565b6114cf604083018461144c565b949350505050565b600060208201905081810360008301526114f18184611310565b905092915050565b600060208201905081810360008301526115128161138c565b9050919050565b600060208201905061152e600083018461144c565b92915050565b6000819050602082019050919050565b600081519050919050565b6000602082019050919050565b600082825260208201905092915050565b600082825260208201905092915050565b600061158982611658565b915061159483611658565b9250827fffffffffffffffffffffffffffffffffffffffffffffffffffffffffffffffff038211156115c9576115c86116e1565b5b828201905092915050565b60006115df82611658565b91506115ea83611658565b9250828210156115fd576115fc6116e1565b5b828203905092915050565b600061161382611638565b9050919050565b600061162582611638565b9050919050565b60008115159050919050565b600073ffffffffffffffffffffffffffffffffffffffff82169050919050565b6000819050919050565b600061166d82611674565b9050919050565b600061167f82611686565b9050919050565b600061169182611638565b9050919050565b60006116a382611658565b91507fffffffffffffffffffffffffffffffffffffffffffffffffffffffffffffffff8214156116d6576116d56116e1565b5b600182019050919050565b7f4e487b7100000000000000000000000000000000000000000000000000000000600052601160045260246000fd5b7f5265656e7472616e637947756172643a207265656e7472616e742063616c6c00600082015250565b61174281611608565b811461174d57600080fd5b50565b61175981611658565b811461176457600080fd5b5056fea2646970667358221220dc07d35aa655be6b9db6e177dd8d9955409b1a0bdb42c1e1a64134037c35f6ae64736f6c63430008030033",
  "immutableReferences": {},
  "source": "// SPDX-License-Identifier: UNLICENSED\npragma solidity 0.8.3;\n\nimport \"@openzeppelin/contracts/utils/Counters.sol\"; // Utility Contract - Use to Increment Token IDs Consistently\nimport \"@openzeppelin/contracts/token/ERC721/ERC721.sol\";\nimport \"@openzeppelin/contracts/security/ReentrancyGuard.sol\"; // Prevents Nested Function Calls Resulting in Multiple Transactions\n\ncontract Market is ReentrancyGuard {\n    using Counters for Counters.Counter;\n    Counters.Counter private _itemIds;\n    Counters.Counter private _itemsSold;\n\n    address payable owner;\n    uint256 listingPrice = 0.050 ether; // Works for both Polygon and Ether\n\n    constructor() {\n        owner = payable(msg.sender); // Allow commission payments\n    }\n\n    struct MarketItem {\n        uint itemId;\n        address nftContract;\n        uint256 tokenId;\n        address payable seller;\n        address payable owner;\n        uint256 price;\n        bool sold;\n    }\n\n    mapping(uint256 => MarketItem) private idToMarketItem;\n\n    event MarketItemCreated (\n        uint indexed itemId,\n        address indexed nftContract,\n        uint256 indexed tokenId,\n        address seller,\n        address owner,\n        uint256 price,\n        bool sold\n    );\n\n    // Gets Price to Sell Item on Marketplace\n    function getListingPrice() public view returns (uint256) {\n        return listingPrice;\n    }\n\n    // Places an item for sale on the marketplace\n    function createMarketItem(address nftContract, uint256 tokenId, uint256 price) public payable nonReentrant {\n        require(price > 0);\n        require(msg.value == listingPrice);\n\n        _itemIds.increment();\n        uint256 itemId = _itemIds.current();\n\n        idToMarketItem[itemId] = MarketItem(itemId, nftContract, tokenId, payable(msg.sender), payable(address(0)), price, false);\n\n        IERC721(nftContract).transferFrom(msg.sender, address(this), tokenId); // Transferred to NFT Marketplace Smart Contract\n\n        emit MarketItemCreated(itemId, nftContract, tokenId, payable(msg.sender), payable(address(0)), price, false);\n    }\n\n    // Creates the Sale of a Marketplace Item\n    function createMarketSale(address nftContract, uint256 itemId) public payable nonReentrant {\n        uint price = idToMarketItem[itemId].price;\n        uint tokenId = idToMarketItem[itemId].tokenId;\n\n        require(msg.value == price);\n\n        // Pay Seller\n        idToMarketItem[itemId].seller.transfer(msg.value);\n\n        // Set New Owner\n        IERC721(nftContract).transferFrom(address(this), msg.sender, tokenId);\n\n        idToMarketItem[itemId].owner = payable(msg.sender);\n        idToMarketItem[itemId].sold = true;\n\n        _itemsSold.increment();\n\n        payable(owner).transfer(listingPrice); // Pay Marketplace Owner\n    }\n\n    // Return Unsoled Market Items\n    function  fetchMarketItems() public view returns (MarketItem[] memory) {\n        uint itemCount = _itemIds.current();\n        uint unsoldItemCount = _itemIds.current() - _itemsSold.current();\n        uint currentIndex = 0;\n\n        // If Owner is Empty, Unsold\n        MarketItem[] memory items = new MarketItem[](unsoldItemCount); // Create Array of Length Unsold Items\n        for (uint i = 0; i < itemCount; i++) {\n            if (idToMarketItem[i + 1].owner == address(0)) { // If owner is marketplace\n                uint currentId = i + 1;\n                MarketItem storage currentItem = idToMarketItem[currentId];\n\n                items[currentIndex] = currentItem;\n                currentIndex += 1;\n            }\n        }\n\n        return items;\n\n    }\n\n    // Return NFT User Has Purchased\n    function fetchMyNFTs() public view returns (MarketItem[] memory) {\n        uint totalItemCount = _itemIds.current();\n        uint itemCount = 0;\n        uint currentIndex = 0;\n\n        // Count Number of NFTs Owned\n        for (uint i = 0; i < totalItemCount; i++) {\n            if (idToMarketItem[i + 1].owner == msg.sender) {\n                itemCount += 1;\n            }\n        }\n\n        MarketItem[] memory items = new MarketItem[](itemCount); // Create Array of Length NFTs Owned\n\n        for (uint i = 0; i < totalItemCount; i++) {\n            if (idToMarketItem[i + 1].owner == msg.sender) {\n                uint currentId = i + 1;\n                MarketItem storage currentItem = idToMarketItem[currentId];\n                items[currentIndex] = currentItem;\n                currentIndex += 1;\n            }\n        }\n\n        return items;\n    }\n\n    // Returns Items User Has Created\n    function fetchItemsCreated() public view returns (MarketItem[] memory) {\n        uint totalItemCount = _itemIds.current();\n        uint itemCount = 0;\n        uint currentIndex = 0;\n\n        // Count Number of NFTs Owned\n        for (uint i = 0; i < totalItemCount; i++) {\n            if (idToMarketItem[i + 1].seller == msg.sender) {\n                itemCount += 1;\n            }\n        }\n\n        MarketItem[] memory items = new MarketItem[](itemCount); // Create Array of Length NFTs Owned\n\n        for (uint i = 0; i < totalItemCount; i++) {\n            if (idToMarketItem[i + 1].seller == msg.sender) {\n                uint currentId = i + 1;\n                MarketItem storage currentItem = idToMarketItem[currentId];\n                items[currentIndex] = currentItem;\n                currentIndex += 1;\n            }\n        }\n\n        return items;\n    }\n\n}",
  "sourcePath": "/Users/swhit210/E.C.R.I.C_Development/Code-Reference-Blockchain/NFTs/NFT_Marketplace/contracts/Market.sol",
  "compiler": {
    "name": "solc",
    "version": "0.8.3+commit.8d00100c.Emscripten.clang"
  },
  "schemaVersion": "3.4.5",
  "updatedAt": "2022-03-05T20:06:05.294Z",
  "devdoc": {
    "kind": "dev",
    "methods": {},
    "version": 1
  },
  "userdoc": {
    "kind": "user",
    "methods": {},
    "version": 1
  }
}