{
  "_format": "hh-sol-artifact-1",
  "contractName": "NFT",
  "sourceName": "contracts/NFT.sol",
  "abi": [
    {
      "inputs": [],
      "stateMutability": "nonpayable",
      "type": "constructor"
    },
    {
      "anonymous": false,
      "inputs": [
        {
          "indexed": true,
          "internalType": "address",
          "name": "owner",
          "type": "address"
        },
        {
          "indexed": true,
          "internalType": "address",
          "name": "approved",
          "type": "address"
        },
        {
          "indexed": true,
          "internalType": "uint256",
          "name": "tokenId",
          "type": "uint256"
        }
      ],
      "name": "Approval",
      "type": "event"
    },
    {
      "anonymous": false,
      "inputs": [
        {
          "indexed": true,
          "internalType": "address",
          "name": "owner",
          "type": "address"
        },
        {
          "indexed": true,
          "internalType": "address",
          "name": "operator",
          "type": "address"
        },
        {
          "indexed": false,
          "internalType": "bool",
          "name": "approved",
          "type": "bool"
        }
      ],
      "name": "ApprovalForAll",
      "type": "event"
    },
    {
      "anonymous": false,
      "inputs": [
        {
          "indexed": true,
          "internalType": "address",
          "name": "from",
          "type": "address"
        },
        {
          "indexed": true,
          "internalType": "address",
          "name": "to",
          "type": "address"
        },
        {
          "indexed": true,
          "internalType": "uint256",
          "name": "tokenId",
          "type": "uint256"
        }
      ],
      "name": "Transfer",
      "type": "event"
    },
    {
      "inputs": [
        {
          "internalType": "address",
          "name": "to",
          "type": "address"
        },
        {
          "internalType": "uint256",
          "name": "tokenId",
          "type": "uint256"
        }
      ],
      "name": "approve",
      "outputs": [],
      "stateMutability": "nonpayable",
      "type": "function"
    },
    {
      "inputs": [
        {
          "internalType": "address",
          "name": "owner",
          "type": "address"
        }
      ],
      "name": "balanceOf",
      "outputs": [
        {
          "internalType": "uint256",
          "name": "",
          "type": "uint256"
        }
      ],
      "stateMutability": "view",
      "type": "function"
    },
    {
      "inputs": [],
      "name": "baseTokenURI",
      "outputs": [
        {
          "internalType": "string",
          "name": "",
          "type": "string"
        }
      ],
      "stateMutability": "view",
      "type": "function"
    },
    {
      "inputs": [
        {
          "internalType": "uint256",
          "name": "tokenId",
          "type": "uint256"
        }
      ],
      "name": "getApproved",
      "outputs": [
        {
          "internalType": "address",
          "name": "",
          "type": "address"
        }
      ],
      "stateMutability": "view",
      "type": "function"
    },
    {
      "inputs": [
        {
          "internalType": "address",
          "name": "owner",
          "type": "address"
        },
        {
          "internalType": "address",
          "name": "operator",
          "type": "address"
        }
      ],
      "name": "isApprovedForAll",
      "outputs": [
        {
          "internalType": "bool",
          "name": "",
          "type": "bool"
        }
      ],
      "stateMutability": "view",
      "type": "function"
    },
    {
      "inputs": [
        {
          "internalType": "address",
          "name": "recipient",
          "type": "address"
        }
      ],
      "name": "mintTo",
      "outputs": [
        {
          "internalType": "uint256",
          "name": "",
          "type": "uint256"
        }
      ],
      "stateMutability": "nonpayable",
      "type": "function"
    },
    {
      "inputs": [],
      "name": "name",
      "outputs": [
        {
          "internalType": "string",
          "name": "",
          "type": "string"
        }
      ],
      "stateMutability": "view",
      "type": "function"
    },
    {
      "inputs": [
        {
          "internalType": "uint256",
          "name": "tokenId",
          "type": "uint256"
        }
      ],
      "name": "ownerOf",
      "outputs": [
        {
          "internalType": "address",
          "name": "",
          "type": "address"
        }
      ],
      "stateMutability": "view",
      "type": "function"
    },
    {
      "inputs": [
        {
          "internalType": "address",
          "name": "from",
          "type": "address"
        },
        {
          "internalType": "address",
          "name": "to",
          "type": "address"
        },
        {
          "internalType": "uint256",
          "name": "tokenId",
          "type": "uint256"
        }
      ],
      "name": "safeTransferFrom",
      "outputs": [],
      "stateMutability": "nonpayable",
      "type": "function"
    },
    {
      "inputs": [
        {
          "internalType": "address",
          "name": "from",
          "type": "address"
        },
        {
          "internalType": "address",
          "name": "to",
          "type": "address"
        },
        {
          "internalType": "uint256",
          "name": "tokenId",
          "type": "uint256"
        },
        {
          "internalType": "bytes",
          "name": "_data",
          "type": "bytes"
        }
      ],
      "name": "safeTransferFrom",
      "outputs": [],
      "stateMutability": "nonpayable",
      "type": "function"
    },
    {
      "inputs": [
        {
          "internalType": "address",
          "name": "operator",
          "type": "address"
        },
        {
          "internalType": "bool",
          "name": "approved",
          "type": "bool"
        }
      ],
      "name": "setApprovalForAll",
      "outputs": [],
      "stateMutability": "nonpayable",
      "type": "function"
    },
    {
      "inputs": [
        {
          "internalType": "string",
          "name": "_baseTokenURI",
          "type": "string"
        }
      ],
      "name": "setBaseTokenURI",
      "outputs": [],
      "stateMutability": "nonpayable",
      "type": "function"
    },
    {
      "inputs": [
        {
          "internalType": "bytes4",
          "name": "interfaceId",
          "type": "bytes4"
        }
      ],
      "name": "supportsInterface",
      "outputs": [
        {
          "internalType": "bool",
          "name": "",
          "type": "bool"
        }
      ],
      "stateMutability": "view",
      "type": "function"
    },
    {
      "inputs": [],
      "name": "symbol",
      "outputs": [
        {
          "internalType": "string",
          "name": "",
          "type": "string"
        }
      ],
      "stateMutability": "view",
      "type": "function"
    },
    {
      "inputs": [
        {
          "internalType": "uint256",
          "name": "tokenId",
          "type": "uint256"
        }
      ],
      "name": "tokenURI",
      "outputs": [
        {
          "internalType": "string",
          "name": "",
          "type": "string"
        }
      ],
      "stateMutability": "view",
      "type": "function"
    },
    {
      "inputs": [
        {
          "internalType": "address",
          "name": "from",
          "type": "address"
        },
        {
          "internalType": "address",
          "name": "to",
          "type": "address"
        },
        {
          "internalType": "uint256",
          "name": "tokenId",
          "type": "uint256"
        }
      ],
      "name": "transferFrom",
      "outputs": [],
      "stateMutability": "nonpayable",
      "type": "function"
    }
  ],
  "bytecode": "0x60806040523480156200001157600080fd5b506040518060400160405280600b81526020017f4e46545475746f7269616c0000000000000000000000000000000000000000008152506040518060400160405280600381526020017f4e46540000000000000000000000000000000000000000000000000000000000815250816000908051906020019062000096929190620000e0565b508060019080519060200190620000af929190620000e0565b5050506040518060200160405280600081525060079080519060200190620000d9929190620000e0565b50620001f5565b828054620000ee9062000190565b90600052602060002090601f0160209004810192826200011257600085556200015e565b82601f106200012d57805160ff19168380011785556200015e565b828001600101855582156200015e579182015b828111156200015d57825182559160200191906001019062000140565b5b5090506200016d919062000171565b5090565b5b808211156200018c57600081600090555060010162000172565b5090565b60006002820490506001821680620001a957607f821691505b60208210811415620001c057620001bf620001c6565b5b50919050565b7f4e487b7100000000000000000000000000000000000000000000000000000000600052602260045260246000fd5b612a7e80620002056000396000f3fe608060405234801561001057600080fd5b50600436106101005760003560e01c806370a0823111610097578063b88d4fde11610066578063b88d4fde146102bd578063c87b56dd146102d9578063d547cfb714610309578063e985e9c51461032757610100565b806370a0823114610223578063755edd171461025357806395d89b4114610283578063a22cb465146102a157610100565b806323b872dd116100d357806323b872dd1461019f57806330176e13146101bb57806342842e0e146101d75780636352211e146101f357610100565b806301ffc9a71461010557806306fdde0314610135578063081812fc14610153578063095ea7b314610183575b600080fd5b61011f600480360381019061011a9190611c0e565b610357565b60405161012c919061200f565b60405180910390f35b61013d610439565b60405161014a919061202a565b60405180910390f35b61016d60048036038101906101689190611ca1565b6104cb565b60405161017a9190611fa8565b60405180910390f35b61019d60048036038101906101989190611bd2565b610550565b005b6101b960048036038101906101b49190611acc565b610668565b005b6101d560048036038101906101d09190611c60565b6106c8565b005b6101f160048036038101906101ec9190611acc565b6106e2565b005b61020d60048036038101906102089190611ca1565b610702565b60405161021a9190611fa8565b60405180910390f35b61023d60048036038101906102389190611a67565b6107b4565b60405161024a919061220c565b60405180910390f35b61026d60048036038101906102689190611a67565b61086c565b60405161027a919061220c565b60405180910390f35b61028b610899565b604051610298919061202a565b60405180910390f35b6102bb60048036038101906102b69190611b96565b61092b565b005b6102d760048036038101906102d29190611b1b565b610941565b005b6102f360048036038101906102ee9190611ca1565b6109a3565b604051610300919061202a565b60405180910390f35b610311610a4a565b60405161031e919061202a565b60405180910390f35b610341600480360381019061033c9190611a90565b610ad8565b60405161034e919061200f565b60405180910390f35b60007f80ac58cd000000000000000000000000000000000000000000000000000000007bffffffffffffffffffffffffffffffffffffffffffffffffffffffff1916827bffffffffffffffffffffffffffffffffffffffffffffffffffffffff1916148061042257507f5b5e139f000000000000000000000000000000000000000000000000000000007bffffffffffffffffffffffffffffffffffffffffffffffffffffffff1916827bffffffffffffffffffffffffffffffffffffffffffffffffffffffff1916145b80610432575061043182610b6c565b5b9050919050565b60606000805461044890612462565b80601f016020809104026020016040519081016040528092919081815260200182805461047490612462565b80156104c15780601f10610496576101008083540402835291602001916104c1565b820191906000526020600020905b8154815290600101906020018083116104a457829003601f168201915b5050505050905090565b60006104d682610bd6565b610515576040517f08c379a000000000000000000000000000000000000000000000000000000000815260040161050c9061218c565b60405180910390fd5b6004600083815260200190815260200160002060009054906101000a900473ffffffffffffffffffffffffffffffffffffffff169050919050565b600061055b82610702565b90508073ffffffffffffffffffffffffffffffffffffffff168373ffffffffffffffffffffffffffffffffffffffff1614156105cc576040517f08c379a00000000000000000000000000000000000000000000000000000000081526004016105c3906121cc565b60405180910390fd5b8073ffffffffffffffffffffffffffffffffffffffff166105eb610c42565b73ffffffffffffffffffffffffffffffffffffffff16148061061a575061061981610614610c42565b610ad8565b5b610659576040517f08c379a00000000000000000000000000000000000000000000000000000000081526004016106509061210c565b60405180910390fd5b6106638383610c4a565b505050565b610679610673610c42565b82610d03565b6106b8576040517f08c379a00000000000000000000000000000000000000000000000000000000081526004016106af906121ec565b60405180910390fd5b6106c3838383610de1565b505050565b80600790805190602001906106de92919061188b565b5050565b6106fd83838360405180602001604052806000815250610941565b505050565b6000806002600084815260200190815260200160002060009054906101000a900473ffffffffffffffffffffffffffffffffffffffff169050600073ffffffffffffffffffffffffffffffffffffffff168173ffffffffffffffffffffffffffffffffffffffff1614156107ab576040517f08c379a00000000000000000000000000000000000000000000000000000000081526004016107a29061214c565b60405180910390fd5b80915050919050565b60008073ffffffffffffffffffffffffffffffffffffffff168273ffffffffffffffffffffffffffffffffffffffff161415610825576040517f08c379a000000000000000000000000000000000000000000000000000000000815260040161081c9061212c565b60405180910390fd5b600360008373ffffffffffffffffffffffffffffffffffffffff1673ffffffffffffffffffffffffffffffffffffffff168152602001908152602001600020549050919050565b60006108786006611048565b6000610884600661105e565b9050610890838261106c565b80915050919050565b6060600180546108a890612462565b80601f01602080910402602001604051908101604052809291908181526020018280546108d490612462565b80156109215780601f106108f657610100808354040283529160200191610921565b820191906000526020600020905b81548152906001019060200180831161090457829003601f168201915b5050505050905090565b61093d610936610c42565b838361108a565b5050565b61095261094c610c42565b83610d03565b610991576040517f08c379a0000000000000000000000000000000000000000000000000000000008152600401610988906121ec565b60405180910390fd5b61099d848484846111f7565b50505050565b60606109ae82610bd6565b6109ed576040517f08c379a00000000000000000000000000000000000000000000000000000000081526004016109e4906121ac565b60405180910390fd5b60006109f7611253565b90506000815111610a175760405180602001604052806000815250610a42565b80610a21846112e5565b604051602001610a32929190611f84565b6040516020818303038152906040525b915050919050565b60078054610a5790612462565b80601f0160208091040260200160405190810160405280929190818152602001828054610a8390612462565b8015610ad05780601f10610aa557610100808354040283529160200191610ad0565b820191906000526020600020905b815481529060010190602001808311610ab357829003601f168201915b505050505081565b6000600560008473ffffffffffffffffffffffffffffffffffffffff1673ffffffffffffffffffffffffffffffffffffffff16815260200190815260200160002060008373ffffffffffffffffffffffffffffffffffffffff1673ffffffffffffffffffffffffffffffffffffffff16815260200190815260200160002060009054906101000a900460ff16905092915050565b60007f01ffc9a7000000000000000000000000000000000000000000000000000000007bffffffffffffffffffffffffffffffffffffffffffffffffffffffff1916827bffffffffffffffffffffffffffffffffffffffffffffffffffffffff1916149050919050565b60008073ffffffffffffffffffffffffffffffffffffffff166002600084815260200190815260200160002060009054906101000a900473ffffffffffffffffffffffffffffffffffffffff1673ffffffffffffffffffffffffffffffffffffffff1614159050919050565b600033905090565b816004600083815260200190815260200160002060006101000a81548173ffffffffffffffffffffffffffffffffffffffff021916908373ffffffffffffffffffffffffffffffffffffffff160217905550808273ffffffffffffffffffffffffffffffffffffffff16610cbd83610702565b73ffffffffffffffffffffffffffffffffffffffff167f8c5be1e5ebec7d5bd14f71427d1e84f3dd0314c0f7b2291e5b200ac8c7c3b92560405160405180910390a45050565b6000610d0e82610bd6565b610d4d576040517f08c379a0000000000000000000000000000000000000000000000000000000008152600401610d44906120ec565b60405180910390fd5b6000610d5883610702565b90508073ffffffffffffffffffffffffffffffffffffffff168473ffffffffffffffffffffffffffffffffffffffff161480610dc757508373ffffffffffffffffffffffffffffffffffffffff16610daf846104cb565b73ffffffffffffffffffffffffffffffffffffffff16145b80610dd85750610dd78185610ad8565b5b91505092915050565b8273ffffffffffffffffffffffffffffffffffffffff16610e0182610702565b73ffffffffffffffffffffffffffffffffffffffff1614610e57576040517f08c379a0000000000000000000000000000000000000000000000000000000008152600401610e4e9061206c565b60405180910390fd5b600073ffffffffffffffffffffffffffffffffffffffff168273ffffffffffffffffffffffffffffffffffffffff161415610ec7576040517f08c379a0000000000000000000000000000000000000000000000000000000008152600401610ebe906120ac565b60405180910390fd5b610ed2838383611492565b610edd600082610c4a565b6001600360008573ffffffffffffffffffffffffffffffffffffffff1673ffffffffffffffffffffffffffffffffffffffff1681526020019081526020016000206000828254610f2d9190612378565b925050819055506001600360008473ffffffffffffffffffffffffffffffffffffffff1673ffffffffffffffffffffffffffffffffffffffff1681526020019081526020016000206000828254610f8491906122f1565b92505081905550816002600083815260200190815260200160002060006101000a81548173ffffffffffffffffffffffffffffffffffffffff021916908373ffffffffffffffffffffffffffffffffffffffff160217905550808273ffffffffffffffffffffffffffffffffffffffff168473ffffffffffffffffffffffffffffffffffffffff167fddf252ad1be2c89b69c2b068fc378daa952ba7f163c4a11628f55a4df523b3ef60405160405180910390a4611043838383611497565b505050565b6001816000016000828254019250508190555050565b600081600001549050919050565b61108682826040518060200160405280600081525061149c565b5050565b8173ffffffffffffffffffffffffffffffffffffffff168373ffffffffffffffffffffffffffffffffffffffff1614156110f9576040517f08c379a00000000000000000000000000000000000000000000000000000000081526004016110f0906120cc565b60405180910390fd5b80600560008573ffffffffffffffffffffffffffffffffffffffff1673ffffffffffffffffffffffffffffffffffffffff16815260200190815260200160002060008473ffffffffffffffffffffffffffffffffffffffff1673ffffffffffffffffffffffffffffffffffffffff16815260200190815260200160002060006101000a81548160ff0219169083151502179055508173ffffffffffffffffffffffffffffffffffffffff168373ffffffffffffffffffffffffffffffffffffffff167f17307eab39ab6107e8899845ad3d59bd9653f200f220920489ca2b5937696c31836040516111ea919061200f565b60405180910390a3505050565b611202848484610de1565b61120e848484846114f7565b61124d576040517f08c379a00000000000000000000000000000000000000000000000000000000081526004016112449061204c565b60405180910390fd5b50505050565b60606007805461126290612462565b80601f016020809104026020016040519081016040528092919081815260200182805461128e90612462565b80156112db5780601f106112b0576101008083540402835291602001916112db565b820191906000526020600020905b8154815290600101906020018083116112be57829003601f168201915b5050505050905090565b6060600082141561132d576040518060400160405280600181526020017f3000000000000000000000000000000000000000000000000000000000000000815250905061148d565b600082905060005b6000821461135f578080611348906124c5565b915050600a826113589190612347565b9150611335565b60008167ffffffffffffffff8111156113a1577f4e487b7100000000000000000000000000000000000000000000000000000000600052604160045260246000fd5b6040519080825280601f01601f1916602001820160405280156113d35781602001600182028036833780820191505090505b5090505b60008514611486576001826113ec9190612378565b9150600a856113fb919061250e565b603061140791906122f1565b60f81b818381518110611443577f4e487b7100000000000000000000000000000000000000000000000000000000600052603260045260246000fd5b60200101907effffffffffffffffffffffffffffffffffffffffffffffffffffffffffffff1916908160001a905350600a8561147f9190612347565b94506113d7565b8093505050505b919050565b505050565b505050565b6114a6838361168e565b6114b360008484846114f7565b6114f2576040517f08c379a00000000000000000000000000000000000000000000000000000000081526004016114e99061204c565b60405180910390fd5b505050565b60006115188473ffffffffffffffffffffffffffffffffffffffff16611868565b15611681578373ffffffffffffffffffffffffffffffffffffffff1663150b7a02611541610c42565b8786866040518563ffffffff1660e01b81526004016115639493929190611fc3565b602060405180830381600087803b15801561157d57600080fd5b505af19250505080156115ae57506040513d601f19601f820116820180604052508101906115ab9190611c37565b60015b611631573d80600081146115de576040519150601f19603f3d011682016040523d82523d6000602084013e6115e3565b606091505b50600081511415611629576040517f08c379a00000000000000000000000000000000000000000000000000000000081526004016116209061204c565b60405180910390fd5b805181602001fd5b63150b7a0260e01b7bffffffffffffffffffffffffffffffffffffffffffffffffffffffff1916817bffffffffffffffffffffffffffffffffffffffffffffffffffffffff191614915050611686565b600190505b949350505050565b600073ffffffffffffffffffffffffffffffffffffffff168273ffffffffffffffffffffffffffffffffffffffff1614156116fe576040517f08c379a00000000000000000000000000000000000000000000000000000000081526004016116f59061216c565b60405180910390fd5b61170781610bd6565b15611747576040517f08c379a000000000000000000000000000000000000000000000000000000000815260040161173e9061208c565b60405180910390fd5b61175360008383611492565b6001600360008473ffffffffffffffffffffffffffffffffffffffff1673ffffffffffffffffffffffffffffffffffffffff16815260200190815260200160002060008282546117a391906122f1565b92505081905550816002600083815260200190815260200160002060006101000a81548173ffffffffffffffffffffffffffffffffffffffff021916908373ffffffffffffffffffffffffffffffffffffffff160217905550808273ffffffffffffffffffffffffffffffffffffffff16600073ffffffffffffffffffffffffffffffffffffffff167fddf252ad1be2c89b69c2b068fc378daa952ba7f163c4a11628f55a4df523b3ef60405160405180910390a461186460008383611497565b5050565b6000808273ffffffffffffffffffffffffffffffffffffffff163b119050919050565b82805461189790612462565b90600052602060002090601f0160209004810192826118b95760008555611900565b82601f106118d257805160ff1916838001178555611900565b82800160010185558215611900579182015b828111156118ff5782518255916020019190600101906118e4565b5b50905061190d9190611911565b5090565b5b8082111561192a576000816000905550600101611912565b5090565b600061194161193c8461224c565b612227565b90508281526020810184848401111561195957600080fd5b611964848285612420565b509392505050565b600061197f61197a8461227d565b612227565b90508281526020810184848401111561199757600080fd5b6119a2848285612420565b509392505050565b6000813590506119b9816129ec565b92915050565b6000813590506119ce81612a03565b92915050565b6000813590506119e381612a1a565b92915050565b6000815190506119f881612a1a565b92915050565b600082601f830112611a0f57600080fd5b8135611a1f84826020860161192e565b91505092915050565b600082601f830112611a3957600080fd5b8135611a4984826020860161196c565b91505092915050565b600081359050611a6181612a31565b92915050565b600060208284031215611a7957600080fd5b6000611a87848285016119aa565b91505092915050565b60008060408385031215611aa357600080fd5b6000611ab1858286016119aa565b9250506020611ac2858286016119aa565b9150509250929050565b600080600060608486031215611ae157600080fd5b6000611aef868287016119aa565b9350506020611b00868287016119aa565b9250506040611b1186828701611a52565b9150509250925092565b60008060008060808587031215611b3157600080fd5b6000611b3f878288016119aa565b9450506020611b50878288016119aa565b9350506040611b6187828801611a52565b925050606085013567ffffffffffffffff811115611b7e57600080fd5b611b8a878288016119fe565b91505092959194509250565b60008060408385031215611ba957600080fd5b6000611bb7858286016119aa565b9250506020611bc8858286016119bf565b9150509250929050565b60008060408385031215611be557600080fd5b6000611bf3858286016119aa565b9250506020611c0485828601611a52565b9150509250929050565b600060208284031215611c2057600080fd5b6000611c2e848285016119d4565b91505092915050565b600060208284031215611c4957600080fd5b6000611c57848285016119e9565b91505092915050565b600060208284031215611c7257600080fd5b600082013567ffffffffffffffff811115611c8c57600080fd5b611c9884828501611a28565b91505092915050565b600060208284031215611cb357600080fd5b6000611cc184828501611a52565b91505092915050565b611cd3816123ac565b82525050565b611ce2816123be565b82525050565b6000611cf3826122ae565b611cfd81856122c4565b9350611d0d81856020860161242f565b611d16816125fb565b840191505092915050565b6000611d2c826122b9565b611d3681856122d5565b9350611d4681856020860161242f565b611d4f816125fb565b840191505092915050565b6000611d65826122b9565b611d6f81856122e6565b9350611d7f81856020860161242f565b80840191505092915050565b6000611d986032836122d5565b9150611da38261260c565b604082019050919050565b6000611dbb6025836122d5565b9150611dc68261265b565b604082019050919050565b6000611dde601c836122d5565b9150611de9826126aa565b602082019050919050565b6000611e016024836122d5565b9150611e0c826126d3565b604082019050919050565b6000611e246019836122d5565b9150611e2f82612722565b602082019050919050565b6000611e47602c836122d5565b9150611e528261274b565b604082019050919050565b6000611e6a6038836122d5565b9150611e758261279a565b604082019050919050565b6000611e8d602a836122d5565b9150611e98826127e9565b604082019050919050565b6000611eb06029836122d5565b9150611ebb82612838565b604082019050919050565b6000611ed36020836122d5565b9150611ede82612887565b602082019050919050565b6000611ef6602c836122d5565b9150611f01826128b0565b604082019050919050565b6000611f19602f836122d5565b9150611f24826128ff565b604082019050919050565b6000611f3c6021836122d5565b9150611f478261294e565b604082019050919050565b6000611f5f6031836122d5565b9150611f6a8261299d565b604082019050919050565b611f7e81612416565b82525050565b6000611f908285611d5a565b9150611f9c8284611d5a565b91508190509392505050565b6000602082019050611fbd6000830184611cca565b92915050565b6000608082019050611fd86000830187611cca565b611fe56020830186611cca565b611ff26040830185611f75565b81810360608301526120048184611ce8565b905095945050505050565b60006020820190506120246000830184611cd9565b92915050565b600060208201905081810360008301526120448184611d21565b905092915050565b6000602082019050818103600083015261206581611d8b565b9050919050565b6000602082019050818103600083015261208581611dae565b9050919050565b600060208201905081810360008301526120a581611dd1565b9050919050565b600060208201905081810360008301526120c581611df4565b9050919050565b600060208201905081810360008301526120e581611e17565b9050919050565b6000602082019050818103600083015261210581611e3a565b9050919050565b6000602082019050818103600083015261212581611e5d565b9050919050565b6000602082019050818103600083015261214581611e80565b9050919050565b6000602082019050818103600083015261216581611ea3565b9050919050565b6000602082019050818103600083015261218581611ec6565b9050919050565b600060208201905081810360008301526121a581611ee9565b9050919050565b600060208201905081810360008301526121c581611f0c565b9050919050565b600060208201905081810360008301526121e581611f2f565b9050919050565b6000602082019050818103600083015261220581611f52565b9050919050565b60006020820190506122216000830184611f75565b92915050565b6000612231612242565b905061223d8282612494565b919050565b6000604051905090565b600067ffffffffffffffff821115612267576122666125cc565b5b612270826125fb565b9050602081019050919050565b600067ffffffffffffffff821115612298576122976125cc565b5b6122a1826125fb565b9050602081019050919050565b600081519050919050565b600081519050919050565b600082825260208201905092915050565b600082825260208201905092915050565b600081905092915050565b60006122fc82612416565b915061230783612416565b9250827fffffffffffffffffffffffffffffffffffffffffffffffffffffffffffffffff0382111561233c5761233b61253f565b5b828201905092915050565b600061235282612416565b915061235d83612416565b92508261236d5761236c61256e565b5b828204905092915050565b600061238382612416565b915061238e83612416565b9250828210156123a1576123a061253f565b5b828203905092915050565b60006123b7826123f6565b9050919050565b60008115159050919050565b60007fffffffff0000000000000000000000000000000000000000000000000000000082169050919050565b600073ffffffffffffffffffffffffffffffffffffffff82169050919050565b6000819050919050565b82818337600083830152505050565b60005b8381101561244d578082015181840152602081019050612432565b8381111561245c576000848401525b50505050565b6000600282049050600182168061247a57607f821691505b6020821081141561248e5761248d61259d565b5b50919050565b61249d826125fb565b810181811067ffffffffffffffff821117156124bc576124bb6125cc565b5b80604052505050565b60006124d082612416565b91507fffffffffffffffffffffffffffffffffffffffffffffffffffffffffffffffff8214156125035761250261253f565b5b600182019050919050565b600061251982612416565b915061252483612416565b9250826125345761253361256e565b5b828206905092915050565b7f4e487b7100000000000000000000000000000000000000000000000000000000600052601160045260246000fd5b7f4e487b7100000000000000000000000000000000000000000000000000000000600052601260045260246000fd5b7f4e487b7100000000000000000000000000000000000000000000000000000000600052602260045260246000fd5b7f4e487b7100000000000000000000000000000000000000000000000000000000600052604160045260246000fd5b6000601f19601f8301169050919050565b7f4552433732313a207472616e7366657220746f206e6f6e20455243373231526560008201527f63656976657220696d706c656d656e7465720000000000000000000000000000602082015250565b7f4552433732313a207472616e736665722066726f6d20696e636f72726563742060008201527f6f776e6572000000000000000000000000000000000000000000000000000000602082015250565b7f4552433732313a20746f6b656e20616c7265616479206d696e74656400000000600082015250565b7f4552433732313a207472616e7366657220746f20746865207a65726f2061646460008201527f7265737300000000000000000000000000000000000000000000000000000000602082015250565b7f4552433732313a20617070726f766520746f2063616c6c657200000000000000600082015250565b7f4552433732313a206f70657261746f7220717565727920666f72206e6f6e657860008201527f697374656e7420746f6b656e0000000000000000000000000000000000000000602082015250565b7f4552433732313a20617070726f76652063616c6c6572206973206e6f74206f7760008201527f6e6572206e6f7220617070726f76656420666f7220616c6c0000000000000000602082015250565b7f4552433732313a2062616c616e636520717565727920666f7220746865207a6560008201527f726f206164647265737300000000000000000000000000000000000000000000602082015250565b7f4552433732313a206f776e657220717565727920666f72206e6f6e657869737460008201527f656e7420746f6b656e0000000000000000000000000000000000000000000000602082015250565b7f4552433732313a206d696e7420746f20746865207a65726f2061646472657373600082015250565b7f4552433732313a20617070726f76656420717565727920666f72206e6f6e657860008201527f697374656e7420746f6b656e0000000000000000000000000000000000000000602082015250565b7f4552433732314d657461646174613a2055524920717565727920666f72206e6f60008201527f6e6578697374656e7420746f6b656e0000000000000000000000000000000000602082015250565b7f4552433732313a20617070726f76616c20746f2063757272656e74206f776e6560008201527f7200000000000000000000000000000000000000000000000000000000000000602082015250565b7f4552433732313a207472616e736665722063616c6c6572206973206e6f74206f60008201527f776e6572206e6f7220617070726f766564000000000000000000000000000000602082015250565b6129f5816123ac565b8114612a0057600080fd5b50565b612a0c816123be565b8114612a1757600080fd5b50565b612a23816123ca565b8114612a2e57600080fd5b50565b612a3a81612416565b8114612a4557600080fd5b5056fea2646970667358221220a55452d03b60140b4be3583d6ba8ee9420c234927d169eda0816cad61789dc7c64736f6c63430008010033",
  "linkReferences": {},
  "deployedLinkReferences": {}
}