{
  "_format": "hh-sol-artifact-1",
  "contractName": "LimitedNFT",
  "sourceName": "contracts/LimitedNFT.sol",
  "abi": [
    {
      "inputs": [],
      "stateMutability": "nonpayable",
      "type": "constructor"
    },
    {
      "anonymous": false,
      "inputs": [
        {
          "indexed": true,
          "internalType": "address",
          "name": "owner",
          "type": "address"
        },
        {
          "indexed": true,
          "internalType": "address",
          "name": "approved",
          "type": "address"
        },
        {
          "indexed": true,
          "internalType": "uint256",
          "name": "tokenId",
          "type": "uint256"
        }
      ],
      "name": "Approval",
      "type": "event"
    },
    {
      "anonymous": false,
      "inputs": [
        {
          "indexed": true,
          "internalType": "address",
          "name": "owner",
          "type": "address"
        },
        {
          "indexed": true,
          "internalType": "address",
          "name": "operator",
          "type": "address"
        },
        {
          "indexed": false,
          "internalType": "bool",
          "name": "approved",
          "type": "bool"
        }
      ],
      "name": "ApprovalForAll",
      "type": "event"
    },
    {
      "anonymous": false,
      "inputs": [
        {
          "indexed": true,
          "internalType": "address",
          "name": "from",
          "type": "address"
        },
        {
          "indexed": true,
          "internalType": "address",
          "name": "to",
          "type": "address"
        },
        {
          "indexed": true,
          "internalType": "uint256",
          "name": "tokenId",
          "type": "uint256"
        }
      ],
      "name": "Transfer",
      "type": "event"
    },
    {
      "inputs": [
        {
          "internalType": "address",
          "name": "to",
          "type": "address"
        },
        {
          "internalType": "uint256",
          "name": "tokenId",
          "type": "uint256"
        }
      ],
      "name": "approve",
      "outputs": [],
      "stateMutability": "nonpayable",
      "type": "function"
    },
    {
      "inputs": [
        {
          "internalType": "address",
          "name": "owner",
          "type": "address"
        }
      ],
      "name": "balanceOf",
      "outputs": [
        {
          "internalType": "uint256",
          "name": "",
          "type": "uint256"
        }
      ],
      "stateMutability": "view",
      "type": "function"
    },
    {
      "inputs": [],
      "name": "baseTokenURI",
      "outputs": [
        {
          "internalType": "string",
          "name": "",
          "type": "string"
        }
      ],
      "stateMutability": "view",
      "type": "function"
    },
    {
      "inputs": [
        {
          "internalType": "uint256",
          "name": "tokenId",
          "type": "uint256"
        }
      ],
      "name": "getApproved",
      "outputs": [
        {
          "internalType": "address",
          "name": "",
          "type": "address"
        }
      ],
      "stateMutability": "view",
      "type": "function"
    },
    {
      "inputs": [
        {
          "internalType": "address",
          "name": "owner",
          "type": "address"
        },
        {
          "internalType": "address",
          "name": "operator",
          "type": "address"
        }
      ],
      "name": "isApprovedForAll",
      "outputs": [
        {
          "internalType": "bool",
          "name": "",
          "type": "bool"
        }
      ],
      "stateMutability": "view",
      "type": "function"
    },
    {
      "inputs": [
        {
          "internalType": "address",
          "name": "recipient",
          "type": "address"
        }
      ],
      "name": "mintTo",
      "outputs": [
        {
          "internalType": "uint256",
          "name": "",
          "type": "uint256"
        }
      ],
      "stateMutability": "nonpayable",
      "type": "function"
    },
    {
      "inputs": [],
      "name": "name",
      "outputs": [
        {
          "internalType": "string",
          "name": "",
          "type": "string"
        }
      ],
      "stateMutability": "view",
      "type": "function"
    },
    {
      "inputs": [
        {
          "internalType": "uint256",
          "name": "tokenId",
          "type": "uint256"
        }
      ],
      "name": "ownerOf",
      "outputs": [
        {
          "internalType": "address",
          "name": "",
          "type": "address"
        }
      ],
      "stateMutability": "view",
      "type": "function"
    },
    {
      "inputs": [
        {
          "internalType": "address",
          "name": "from",
          "type": "address"
        },
        {
          "internalType": "address",
          "name": "to",
          "type": "address"
        },
        {
          "internalType": "uint256",
          "name": "tokenId",
          "type": "uint256"
        }
      ],
      "name": "safeTransferFrom",
      "outputs": [],
      "stateMutability": "nonpayable",
      "type": "function"
    },
    {
      "inputs": [
        {
          "internalType": "address",
          "name": "from",
          "type": "address"
        },
        {
          "internalType": "address",
          "name": "to",
          "type": "address"
        },
        {
          "internalType": "uint256",
          "name": "tokenId",
          "type": "uint256"
        },
        {
          "internalType": "bytes",
          "name": "_data",
          "type": "bytes"
        }
      ],
      "name": "safeTransferFrom",
      "outputs": [],
      "stateMutability": "nonpayable",
      "type": "function"
    },
    {
      "inputs": [
        {
          "internalType": "address",
          "name": "operator",
          "type": "address"
        },
        {
          "internalType": "bool",
          "name": "approved",
          "type": "bool"
        }
      ],
      "name": "setApprovalForAll",
      "outputs": [],
      "stateMutability": "nonpayable",
      "type": "function"
    },
    {
      "inputs": [
        {
          "internalType": "string",
          "name": "_baseTokenURI",
          "type": "string"
        }
      ],
      "name": "setBaseTokenURI",
      "outputs": [],
      "stateMutability": "nonpayable",
      "type": "function"
    },
    {
      "inputs": [
        {
          "internalType": "bytes4",
          "name": "interfaceId",
          "type": "bytes4"
        }
      ],
      "name": "supportsInterface",
      "outputs": [
        {
          "internalType": "bool",
          "name": "",
          "type": "bool"
        }
      ],
      "stateMutability": "view",
      "type": "function"
    },
    {
      "inputs": [],
      "name": "symbol",
      "outputs": [
        {
          "internalType": "string",
          "name": "",
          "type": "string"
        }
      ],
      "stateMutability": "view",
      "type": "function"
    },
    {
      "inputs": [
        {
          "internalType": "uint256",
          "name": "tokenId",
          "type": "uint256"
        }
      ],
      "name": "tokenURI",
      "outputs": [
        {
          "internalType": "string",
          "name": "",
          "type": "string"
        }
      ],
      "stateMutability": "view",
      "type": "function"
    },
    {
      "inputs": [
        {
          "internalType": "address",
          "name": "from",
          "type": "address"
        },
        {
          "internalType": "address",
          "name": "to",
          "type": "address"
        },
        {
          "internalType": "uint256",
          "name": "tokenId",
          "type": "uint256"
        }
      ],
      "name": "transferFrom",
      "outputs": [],
      "stateMutability": "nonpayable",
      "type": "function"
    }
  ],
  "bytecode": "0x60806040523480156200001157600080fd5b506040518060400160405280600b81526020017f4e46545475746f7269616c0000000000000000000000000000000000000000008152506040518060400160405280600381526020017f4e46540000000000000000000000000000000000000000000000000000000000815250816000908051906020019062000096929190620000e0565b508060019080519060200190620000af929190620000e0565b5050506040518060200160405280600081525060079080519060200190620000d9929190620000e0565b50620001f5565b828054620000ee9062000190565b90600052602060002090601f0160209004810192826200011257600085556200015e565b82601f106200012d57805160ff19168380011785556200015e565b828001600101855582156200015e579182015b828111156200015d57825182559160200191906001019062000140565b5b5090506200016d919062000171565b5090565b5b808211156200018c57600081600090555060010162000172565b5090565b60006002820490506001821680620001a957607f821691505b60208210811415620001c057620001bf620001c6565b5b50919050565b7f4e487b7100000000000000000000000000000000000000000000000000000000600052602260045260246000fd5b61266680620002056000396000f3fe608060405234801561001057600080fd5b50600436106101005760003560e01c806370a0823111610097578063b88d4fde11610066578063b88d4fde146102bd578063c87b56dd146102d9578063d547cfb714610309578063e985e9c51461032757610100565b806370a0823114610223578063755edd171461025357806395d89b4114610283578063a22cb465146102a157610100565b806323b872dd116100d357806323b872dd1461019f57806330176e13146101bb57806342842e0e146101d75780636352211e146101f357610100565b806301ffc9a71461010557806306fdde0314610135578063081812fc14610153578063095ea7b314610183575b600080fd5b61011f600480360381019061011a919061183c565b610357565b60405161012c9190611c1a565b60405180910390f35b61013d610439565b60405161014a9190611c35565b60405180910390f35b61016d600480360381019061016891906118cf565b6104cb565b60405161017a9190611bb3565b60405180910390f35b61019d60048036038101906101989190611800565b610550565b005b6101b960048036038101906101b491906116fa565b610668565b005b6101d560048036038101906101d0919061188e565b6106a3565b005b6101f160048036038101906101ec91906116fa565b6106bd565b005b61020d600480360381019061020891906118cf565b6106f8565b60405161021a9190611bb3565b60405180910390f35b61023d60048036038101906102389190611695565b6107aa565b60405161024a9190611df7565b60405180910390f35b61026d60048036038101906102689190611695565b610862565b60405161027a9190611df7565b60405180910390f35b61028b61088f565b6040516102989190611c35565b60405180910390f35b6102bb60048036038101906102b691906117c4565b610921565b005b6102d760048036038101906102d29190611749565b610937565b005b6102f360048036038101906102ee91906118cf565b610972565b6040516103009190611c35565b60405180910390f35b610311610a19565b60405161031e9190611c35565b60405180910390f35b610341600480360381019061033c91906116be565b610aa7565b60405161034e9190611c1a565b60405180910390f35b60007f80ac58cd000000000000000000000000000000000000000000000000000000007bffffffffffffffffffffffffffffffffffffffffffffffffffffffff1916827bffffffffffffffffffffffffffffffffffffffffffffffffffffffff1916148061042257507f5b5e139f000000000000000000000000000000000000000000000000000000007bffffffffffffffffffffffffffffffffffffffffffffffffffffffff1916827bffffffffffffffffffffffffffffffffffffffffffffffffffffffff1916145b80610432575061043182610b3b565b5b9050919050565b6060600080546104489061204d565b80601f01602080910402602001604051908101604052809291908181526020018280546104749061204d565b80156104c15780601f10610496576101008083540402835291602001916104c1565b820191906000526020600020905b8154815290600101906020018083116104a457829003601f168201915b5050505050905090565b60006104d682610ba5565b610515576040517f08c379a000000000000000000000000000000000000000000000000000000000815260040161050c90611d57565b60405180910390fd5b6004600083815260200190815260200160002060009054906101000a900473ffffffffffffffffffffffffffffffffffffffff169050919050565b600061055b826106f8565b90508073ffffffffffffffffffffffffffffffffffffffff168373ffffffffffffffffffffffffffffffffffffffff1614156105cc576040517f08c379a00000000000000000000000000000000000000000000000000000000081526004016105c390611d97565b60405180910390fd5b8073ffffffffffffffffffffffffffffffffffffffff166105eb610c11565b73ffffffffffffffffffffffffffffffffffffffff16148061061a575061061981610614610c11565b610aa7565b5b610659576040517f08c379a000000000000000000000000000000000000000000000000000000000815260040161065090611cd7565b60405180910390fd5b6106638383610c19565b505050565b6040517f08c379a000000000000000000000000000000000000000000000000000000000815260040161069a90611db7565b60405180910390fd5b80600790805190602001906106b99291906114b9565b5050565b6040517f08c379a00000000000000000000000000000000000000000000000000000000081526004016106ef90611c57565b60405180910390fd5b6000806002600084815260200190815260200160002060009054906101000a900473ffffffffffffffffffffffffffffffffffffffff169050600073ffffffffffffffffffffffffffffffffffffffff168173ffffffffffffffffffffffffffffffffffffffff1614156107a1576040517f08c379a000000000000000000000000000000000000000000000000000000000815260040161079890611d17565b60405180910390fd5b80915050919050565b60008073ffffffffffffffffffffffffffffffffffffffff168273ffffffffffffffffffffffffffffffffffffffff16141561081b576040517f08c379a000000000000000000000000000000000000000000000000000000000815260040161081290611cf7565b60405180910390fd5b600360008373ffffffffffffffffffffffffffffffffffffffff1673ffffffffffffffffffffffffffffffffffffffff168152602001908152602001600020549050919050565b600061086e6006610cd2565b600061087a6006610ce8565b90506108868382610cf6565b80915050919050565b60606001805461089e9061204d565b80601f01602080910402602001604051908101604052809291908181526020018280546108ca9061204d565b80156109175780601f106108ec57610100808354040283529160200191610917565b820191906000526020600020905b8154815290600101906020018083116108fa57829003601f168201915b5050505050905090565b61093361092c610c11565b8383610d14565b5050565b6040517f08c379a000000000000000000000000000000000000000000000000000000000815260040161096990611dd7565b60405180910390fd5b606061097d82610ba5565b6109bc576040517f08c379a00000000000000000000000000000000000000000000000000000000081526004016109b390611d77565b60405180910390fd5b60006109c6610e81565b905060008151116109e65760405180602001604052806000815250610a11565b806109f084610f13565b604051602001610a01929190611b8f565b6040516020818303038152906040525b915050919050565b60078054610a269061204d565b80601f0160208091040260200160405190810160405280929190818152602001828054610a529061204d565b8015610a9f5780601f10610a7457610100808354040283529160200191610a9f565b820191906000526020600020905b815481529060010190602001808311610a8257829003601f168201915b505050505081565b6000600560008473ffffffffffffffffffffffffffffffffffffffff1673ffffffffffffffffffffffffffffffffffffffff16815260200190815260200160002060008373ffffffffffffffffffffffffffffffffffffffff1673ffffffffffffffffffffffffffffffffffffffff16815260200190815260200160002060009054906101000a900460ff16905092915050565b60007f01ffc9a7000000000000000000000000000000000000000000000000000000007bffffffffffffffffffffffffffffffffffffffffffffffffffffffff1916827bffffffffffffffffffffffffffffffffffffffffffffffffffffffff1916149050919050565b60008073ffffffffffffffffffffffffffffffffffffffff166002600084815260200190815260200160002060009054906101000a900473ffffffffffffffffffffffffffffffffffffffff1673ffffffffffffffffffffffffffffffffffffffff1614159050919050565b600033905090565b816004600083815260200190815260200160002060006101000a81548173ffffffffffffffffffffffffffffffffffffffff021916908373ffffffffffffffffffffffffffffffffffffffff160217905550808273ffffffffffffffffffffffffffffffffffffffff16610c8c836106f8565b73ffffffffffffffffffffffffffffffffffffffff167f8c5be1e5ebec7d5bd14f71427d1e84f3dd0314c0f7b2291e5b200ac8c7c3b92560405160405180910390a45050565b6001816000016000828254019250508190555050565b600081600001549050919050565b610d108282604051806020016040528060008152506110c0565b5050565b8173ffffffffffffffffffffffffffffffffffffffff168373ffffffffffffffffffffffffffffffffffffffff161415610d83576040517f08c379a0000000000000000000000000000000000000000000000000000000008152600401610d7a90611cb7565b60405180910390fd5b80600560008573ffffffffffffffffffffffffffffffffffffffff1673ffffffffffffffffffffffffffffffffffffffff16815260200190815260200160002060008473ffffffffffffffffffffffffffffffffffffffff1673ffffffffffffffffffffffffffffffffffffffff16815260200190815260200160002060006101000a81548160ff0219169083151502179055508173ffffffffffffffffffffffffffffffffffffffff168373ffffffffffffffffffffffffffffffffffffffff167f17307eab39ab6107e8899845ad3d59bd9653f200f220920489ca2b5937696c3183604051610e749190611c1a565b60405180910390a3505050565b606060078054610e909061204d565b80601f0160208091040260200160405190810160405280929190818152602001828054610ebc9061204d565b8015610f095780601f10610ede57610100808354040283529160200191610f09565b820191906000526020600020905b815481529060010190602001808311610eec57829003601f168201915b5050505050905090565b60606000821415610f5b576040518060400160405280600181526020017f300000000000000000000000000000000000000000000000000000000000000081525090506110bb565b600082905060005b60008214610f8d578080610f76906120b0565b915050600a82610f869190611f32565b9150610f63565b60008167ffffffffffffffff811115610fcf577f4e487b7100000000000000000000000000000000000000000000000000000000600052604160045260246000fd5b6040519080825280601f01601f1916602001820160405280156110015781602001600182028036833780820191505090505b5090505b600085146110b45760018261101a9190611f63565b9150600a8561102991906120f9565b60306110359190611edc565b60f81b818381518110611071577f4e487b7100000000000000000000000000000000000000000000000000000000600052603260045260246000fd5b60200101907effffffffffffffffffffffffffffffffffffffffffffffffffffffffffffff1916908160001a905350600a856110ad9190611f32565b9450611005565b8093505050505b919050565b6110ca838361111b565b6110d760008484846112f5565b611116576040517f08c379a000000000000000000000000000000000000000000000000000000000815260040161110d90611c77565b60405180910390fd5b505050565b600073ffffffffffffffffffffffffffffffffffffffff168273ffffffffffffffffffffffffffffffffffffffff16141561118b576040517f08c379a000000000000000000000000000000000000000000000000000000000815260040161118290611d37565b60405180910390fd5b61119481610ba5565b156111d4576040517f08c379a00000000000000000000000000000000000000000000000000000000081526004016111cb90611c97565b60405180910390fd5b6111e06000838361148c565b6001600360008473ffffffffffffffffffffffffffffffffffffffff1673ffffffffffffffffffffffffffffffffffffffff16815260200190815260200160002060008282546112309190611edc565b92505081905550816002600083815260200190815260200160002060006101000a81548173ffffffffffffffffffffffffffffffffffffffff021916908373ffffffffffffffffffffffffffffffffffffffff160217905550808273ffffffffffffffffffffffffffffffffffffffff16600073ffffffffffffffffffffffffffffffffffffffff167fddf252ad1be2c89b69c2b068fc378daa952ba7f163c4a11628f55a4df523b3ef60405160405180910390a46112f160008383611491565b5050565b60006113168473ffffffffffffffffffffffffffffffffffffffff16611496565b1561147f578373ffffffffffffffffffffffffffffffffffffffff1663150b7a0261133f610c11565b8786866040518563ffffffff1660e01b81526004016113619493929190611bce565b602060405180830381600087803b15801561137b57600080fd5b505af19250505080156113ac57506040513d601f19601f820116820180604052508101906113a99190611865565b60015b61142f573d80600081146113dc576040519150601f19603f3d011682016040523d82523d6000602084013e6113e1565b606091505b50600081511415611427576040517f08c379a000000000000000000000000000000000000000000000000000000000815260040161141e90611c77565b60405180910390fd5b805181602001fd5b63150b7a0260e01b7bffffffffffffffffffffffffffffffffffffffffffffffffffffffff1916817bffffffffffffffffffffffffffffffffffffffffffffffffffffffff191614915050611484565b600190505b949350505050565b505050565b505050565b6000808273ffffffffffffffffffffffffffffffffffffffff163b119050919050565b8280546114c59061204d565b90600052602060002090601f0160209004810192826114e7576000855561152e565b82601f1061150057805160ff191683800117855561152e565b8280016001018555821561152e579182015b8281111561152d578251825591602001919060010190611512565b5b50905061153b919061153f565b5090565b5b80821115611558576000816000905550600101611540565b5090565b600061156f61156a84611e37565b611e12565b90508281526020810184848401111561158757600080fd5b61159284828561200b565b509392505050565b60006115ad6115a884611e68565b611e12565b9050828152602081018484840111156115c557600080fd5b6115d084828561200b565b509392505050565b6000813590506115e7816125d4565b92915050565b6000813590506115fc816125eb565b92915050565b60008135905061161181612602565b92915050565b60008151905061162681612602565b92915050565b600082601f83011261163d57600080fd5b813561164d84826020860161155c565b91505092915050565b600082601f83011261166757600080fd5b813561167784826020860161159a565b91505092915050565b60008135905061168f81612619565b92915050565b6000602082840312156116a757600080fd5b60006116b5848285016115d8565b91505092915050565b600080604083850312156116d157600080fd5b60006116df858286016115d8565b92505060206116f0858286016115d8565b9150509250929050565b60008060006060848603121561170f57600080fd5b600061171d868287016115d8565b935050602061172e868287016115d8565b925050604061173f86828701611680565b9150509250925092565b6000806000806080858703121561175f57600080fd5b600061176d878288016115d8565b945050602061177e878288016115d8565b935050604061178f87828801611680565b925050606085013567ffffffffffffffff8111156117ac57600080fd5b6117b88782880161162c565b91505092959194509250565b600080604083850312156117d757600080fd5b60006117e5858286016115d8565b92505060206117f6858286016115ed565b9150509250929050565b6000806040838503121561181357600080fd5b6000611821858286016115d8565b925050602061183285828601611680565b9150509250929050565b60006020828403121561184e57600080fd5b600061185c84828501611602565b91505092915050565b60006020828403121561187757600080fd5b600061188584828501611617565b91505092915050565b6000602082840312156118a057600080fd5b600082013567ffffffffffffffff8111156118ba57600080fd5b6118c684828501611656565b91505092915050565b6000602082840312156118e157600080fd5b60006118ef84828501611680565b91505092915050565b61190181611f97565b82525050565b61191081611fa9565b82525050565b600061192182611e99565b61192b8185611eaf565b935061193b81856020860161201a565b611944816121e6565b840191505092915050565b600061195a82611ea4565b6119648185611ec0565b935061197481856020860161201a565b61197d816121e6565b840191505092915050565b600061199382611ea4565b61199d8185611ed1565b93506119ad81856020860161201a565b80840191505092915050565b60006119c6605283611ec0565b91506119d1826121f7565b606082019050919050565b60006119e9603283611ec0565b91506119f48261226c565b604082019050919050565b6000611a0c601c83611ec0565b9150611a17826122bb565b602082019050919050565b6000611a2f601983611ec0565b9150611a3a826122e4565b602082019050919050565b6000611a52603883611ec0565b9150611a5d8261230d565b604082019050919050565b6000611a75602a83611ec0565b9150611a808261235c565b604082019050919050565b6000611a98602983611ec0565b9150611aa3826123ab565b604082019050919050565b6000611abb602083611ec0565b9150611ac6826123fa565b602082019050919050565b6000611ade602c83611ec0565b9150611ae982612423565b604082019050919050565b6000611b01602f83611ec0565b9150611b0c82612472565b604082019050919050565b6000611b24602183611ec0565b9150611b2f826124c1565b604082019050919050565b6000611b47602583611ec0565b9150611b5282612510565b604082019050919050565b6000611b6a605f83611ec0565b9150611b758261255f565b606082019050919050565b611b8981612001565b82525050565b6000611b9b8285611988565b9150611ba78284611988565b91508190509392505050565b6000602082019050611bc860008301846118f8565b92915050565b6000608082019050611be360008301876118f8565b611bf060208301866118f8565b611bfd6040830185611b80565b8181036060830152611c0f8184611916565b905095945050505050565b6000602082019050611c2f6000830184611907565b92915050565b60006020820190508181036000830152611c4f818461194f565b905092915050565b60006020820190508181036000830152611c70816119b9565b9050919050565b60006020820190508181036000830152611c90816119dc565b9050919050565b60006020820190508181036000830152611cb0816119ff565b9050919050565b60006020820190508181036000830152611cd081611a22565b9050919050565b60006020820190508181036000830152611cf081611a45565b9050919050565b60006020820190508181036000830152611d1081611a68565b9050919050565b60006020820190508181036000830152611d3081611a8b565b9050919050565b60006020820190508181036000830152611d5081611aae565b9050919050565b60006020820190508181036000830152611d7081611ad1565b9050919050565b60006020820190508181036000830152611d9081611af4565b9050919050565b60006020820190508181036000830152611db081611b17565b9050919050565b60006020820190508181036000830152611dd081611b3a565b9050919050565b60006020820190508181036000830152611df081611b5d565b9050919050565b6000602082019050611e0c6000830184611b80565b92915050565b6000611e1c611e2d565b9050611e28828261207f565b919050565b6000604051905090565b600067ffffffffffffffff821115611e5257611e516121b7565b5b611e5b826121e6565b9050602081019050919050565b600067ffffffffffffffff821115611e8357611e826121b7565b5b611e8c826121e6565b9050602081019050919050565b600081519050919050565b600081519050919050565b600082825260208201905092915050565b600082825260208201905092915050565b600081905092915050565b6000611ee782612001565b9150611ef283612001565b9250827fffffffffffffffffffffffffffffffffffffffffffffffffffffffffffffffff03821115611f2757611f2661212a565b5b828201905092915050565b6000611f3d82612001565b9150611f4883612001565b925082611f5857611f57612159565b5b828204905092915050565b6000611f6e82612001565b9150611f7983612001565b925082821015611f8c57611f8b61212a565b5b828203905092915050565b6000611fa282611fe1565b9050919050565b60008115159050919050565b60007fffffffff0000000000000000000000000000000000000000000000000000000082169050919050565b600073ffffffffffffffffffffffffffffffffffffffff82169050919050565b6000819050919050565b82818337600083830152505050565b60005b8381101561203857808201518184015260208101905061201d565b83811115612047576000848401525b50505050565b6000600282049050600182168061206557607f821691505b6020821081141561207957612078612188565b5b50919050565b612088826121e6565b810181811067ffffffffffffffff821117156120a7576120a66121b7565b5b80604052505050565b60006120bb82612001565b91507fffffffffffffffffffffffffffffffffffffffffffffffffffffffffffffffff8214156120ee576120ed61212a565b5b600182019050919050565b600061210482612001565b915061210f83612001565b92508261211f5761211e612159565b5b828206905092915050565b7f4e487b7100000000000000000000000000000000000000000000000000000000600052601160045260246000fd5b7f4e487b7100000000000000000000000000000000000000000000000000000000600052601260045260246000fd5b7f4e487b7100000000000000000000000000000000000000000000000000000000600052602260045260246000fd5b7f4e487b7100000000000000000000000000000000000000000000000000000000600052604160045260246000fd5b6000601f19601f8301169050919050565b7f736166655472616e7366657246726f6d28616464726573732066726f6d2c206160008201527f64647265737320746f2c2075696e7432353620746f6b656e4964293a2063616e60208201527f6e6f74207472616e7366657220746f6b656e0000000000000000000000000000604082015250565b7f4552433732313a207472616e7366657220746f206e6f6e20455243373231526560008201527f63656976657220696d706c656d656e7465720000000000000000000000000000602082015250565b7f4552433732313a20746f6b656e20616c7265616479206d696e74656400000000600082015250565b7f4552433732313a20617070726f766520746f2063616c6c657200000000000000600082015250565b7f4552433732313a20617070726f76652063616c6c6572206973206e6f74206f7760008201527f6e6572206e6f7220617070726f76656420666f7220616c6c0000000000000000602082015250565b7f4552433732313a2062616c616e636520717565727920666f7220746865207a6560008201527f726f206164647265737300000000000000000000000000000000000000000000602082015250565b7f4552433732313a206f776e657220717565727920666f72206e6f6e657869737460008201527f656e7420746f6b656e0000000000000000000000000000000000000000000000602082015250565b7f4552433732313a206d696e7420746f20746865207a65726f2061646472657373600082015250565b7f4552433732313a20617070726f76656420717565727920666f72206e6f6e657860008201527f697374656e7420746f6b656e0000000000000000000000000000000000000000602082015250565b7f4552433732314d657461646174613a2055524920717565727920666f72206e6f60008201527f6e6578697374656e7420746f6b656e0000000000000000000000000000000000602082015250565b7f4552433732313a20617070726f76616c20746f2063757272656e74206f776e6560008201527f7200000000000000000000000000000000000000000000000000000000000000602082015250565b7f7472616e7366657246726f6d28293a2063616e6e6f74207472616e736665722060008201527f746f6b656e000000000000000000000000000000000000000000000000000000602082015250565b7f736166655472616e7366657246726f6d28616464726573732066726f6d2c206160008201527f64647265737320746f2c2075696e7432353620746f6b656e49642c206279746560208201527f73205f64617461293a2063616e6e6f74207472616e7366657220746f6b656e00604082015250565b6125dd81611f97565b81146125e857600080fd5b50565b6125f481611fa9565b81146125ff57600080fd5b50565b61260b81611fb5565b811461261657600080fd5b50565b61262281612001565b811461262d57600080fd5b5056fea2646970667358221220078cce008902ba7a8a8a0edec49d33e4c81ff63fcf93f5c5ffa811f0b2bdfc1d64736f6c63430008010033",
  "linkReferences": {},
  "deployedLinkReferences": {}
}